{
  "_format": "hh-sol-artifact-1",
  "contractName": "BidContract",
  "sourceName": "contracts/BidContract.sol",
  "abi": [
    {
      "inputs": [
        {
          "internalType": "string",
          "name": "_item",
          "type": "string"
        }
      ],
      "stateMutability": "nonpayable",
      "type": "constructor"
    },
    {
      "anonymous": false,
      "inputs": [
        {
          "indexed": false,
          "internalType": "string",
          "name": "outbid",
          "type": "string"
        }
      ],
      "name": "BidInfo",
      "type": "event"
    },
    {
      "inputs": [],
      "name": "ItemInfo",
      "outputs": [
        {
          "internalType": "string",
          "name": "",
          "type": "string"
        }
      ],
      "stateMutability": "view",
      "type": "function"
    },
    {
      "inputs": [],
      "name": "closeBid",
      "outputs": [
        {
          "internalType": "address",
          "name": "",
          "type": "address"
        }
      ],
      "stateMutability": "nonpayable",
      "type": "function"
    },
    {
      "inputs": [],
      "name": "getBidWon",
      "outputs": [
        {
          "internalType": "uint256",
          "name": "",
          "type": "uint256"
        }
      ],
      "stateMutability": "view",
      "type": "function"
    },
    {
      "inputs": [],
      "name": "item",
      "outputs": [
        {
          "internalType": "string",
          "name": "",
          "type": "string"
        }
      ],
      "stateMutability": "view",
      "type": "function"
    },
    {
      "inputs": [],
      "name": "owner",
      "outputs": [
        {
          "internalType": "address",
          "name": "",
          "type": "address"
        }
      ],
      "stateMutability": "view",
      "type": "function"
    },
    {
      "inputs": [
        {
          "internalType": "uint256",
          "name": "bidAmount",
          "type": "uint256"
        }
      ],
      "name": "placeBid",
      "outputs": [],
      "stateMutability": "nonpayable",
      "type": "function"
    }
  ],
  "bytecode": "0x608060405234801561001057600080fd5b50604051610aa2380380610aa28339818101604052602081101561003357600080fd5b810190808051604051939291908464010000000082111561005357600080fd5b8382019150602082018581111561006957600080fd5b825186600182028301116401000000008211171561008657600080fd5b8083526020830192505050908051906020019080838360005b838110156100ba57808201518184015260208101905061009f565b50505050905090810190601f1680156100e75780820380516001836020036101000a031916815260200191505b50604052505050336000806101000a81548173ffffffffffffffffffffffffffffffffffffffff021916908373ffffffffffffffffffffffffffffffffffffffff1602179055506001600460006101000a81548160ff021916908315150217905550806001908051906020019061015f929190610166565b5050610203565b828054600181600116156101000203166002900490600052602060002090601f016020900481019282601f106101a757805160ff19168380011785556101d5565b828001600101855582156101d5579182015b828111156101d45782518255916020019190600101906101b9565b5b5090506101e291906101e6565b5090565b5b808211156101ff5760008160009055506001016101e7565b5090565b610890806102126000396000f3fe608060405234801561001057600080fd5b50600436106100625760003560e01c80638da5cb5b146100675780639979ef451461009b578063c0b404cd146100c9578063ed8bde80146100e7578063f2a4a82e1461011b578063f8104a411461019e575b600080fd5b61006f610221565b604051808273ffffffffffffffffffffffffffffffffffffffff16815260200191505060405180910390f35b6100c7600480360360208110156100b157600080fd5b8101908080359060200190929190505050610245565b005b6100d161039a565b6040518082815260200191505060405180910390f35b6100ef6104cb565b604051808273ffffffffffffffffffffffffffffffffffffffff16815260200191505060405180910390f35b61012361063d565b6040518080602001828103825283818151815260200191508051906020019080838360005b83811015610163578082015181840152602081019050610148565b50505050905090810190601f1680156101905780820380516001836020036101000a031916815260200191505b509250505060405180910390f35b6101a66106db565b6040518080602001828103825283818151815260200191508051906020019080838360005b838110156101e65780820151818401526020810190506101cb565b50505050905090810190601f1680156102135780820380516001836020036101000a031916815260200191505b509250505060405180910390f35b60008054906101000a900473ffffffffffffffffffffffffffffffffffffffff1681565b600460009054906101000a900460ff166102aa576040517f08c379a000000000000000000000000000000000000000000000000000000000815260040180806020018281038252602e815260200180610801602e913960400191505060405180910390fd5b6003548111610304576040517f08c379a000000000000000000000000000000000000000000000000000000000815260040180806020018281038252602581526020018061077e6025913960400191505060405180910390fd5b33600260006101000a81548173ffffffffffffffffffffffffffffffffffffffff021916908373ffffffffffffffffffffffffffffffffffffffff160217905550806003819055507f411ee1fbf56f824de1177f12892238ba2768f3f713763dfe9d43bbdb04985f156040518080602001828103825260278152602001806107a36027913960400191505060405180910390a150565b6000600460009054906101000a900460ff161561041f576040517f08c379a000000000000000000000000000000000000000000000000000000000815260040180806020018281038252601d8152602001807f5468697320636f6e7472616374206973207374696c6c2061637469766500000081525060200191505060405180910390fd5b3373ffffffffffffffffffffffffffffffffffffffff1660008054906101000a900473ffffffffffffffffffffffffffffffffffffffff1673ffffffffffffffffffffffffffffffffffffffff16146104c3576040517f08c379a00000000000000000000000000000000000000000000000000000000081526004018080602001828103825260378152602001806107ca6037913960400191505060405180910390fd5b600354905090565b600060011515600460009054906101000a900460ff16151514610539576040517f08c379a000000000000000000000000000000000000000000000000000000000815260040180806020018281038252602c81526020018061082f602c913960400191505060405180910390fd5b3373ffffffffffffffffffffffffffffffffffffffff1660008054906101000a900473ffffffffffffffffffffffffffffffffffffffff1673ffffffffffffffffffffffffffffffffffffffff16146105fa576040517f08c379a00000000000000000000000000000000000000000000000000000000081526004018080602001828103825260208152602001807f596f7520617265206e6f7420746865206f776e65722e204e696365207472792181525060200191505060405180910390fd5b6000600460006101000a81548160ff021916908315150217905550600260009054906101000a900473ffffffffffffffffffffffffffffffffffffffff16905090565b60018054600181600116156101000203166002900480601f0160208091040260200160405190810160405280929190818152602001828054600181600116156101000203166002900480156106d35780601f106106a8576101008083540402835291602001916106d3565b820191906000526020600020905b8154815290600101906020018083116106b657829003601f168201915b505050505081565b606060018054600181600116156101000203166002900480601f0160208091040260200160405190810160405280929190818152602001828054600181600116156101000203166002900480156107735780601f1061074857610100808354040283529160200191610773565b820191906000526020600020905b81548152906001019060200180831161075657829003601f168201915b505050505090509056fe54686572652069732063757272656e746c7920612068696768657220626964646572203a28596f75206172652063757272656e746c7920746865206869676865737420626964646572203a294f6e6c7920636f6e74726163742063726561746f7220686173207065726d697373696f6e20746f207365652077696e6e696e67206269645468697320636f6e7472616374206973206e6f206c6f6e6765722074616b696e6720626964732c20736f7272792142696464696e67206973206e6f206c6f6e67657220616374697665206f6e207468697320636f6e7472616374a2646970667358221220257231d800ec53e59499714783c52b37bfd0d1e43c3e52bba6cdd8e95c0dbda064736f6c63430007030033",
  "linkReferences": {},
  "deployedLinkReferences": {}
}